:100000000C945A000C9482000C9482000C94820090
:100010000C9482000C9482000C9482000C94820058
:100020000C9482000C9482000C9482000C94820048
:100030000C9482000C9482000C9482000C94820038
:100040000C94D2000C9482000C94AC010C94DE0150
:100050000C9482000C9482000C9482000C94820018
:100060000C94F1080C9482000000000800020100CA
:100070000003040700000000000000000102040863
:100080001020408001020408102001020408102002
:10009000040404040404040402020202020203032E
:1000A0000303030300000000250028002B00C1000B
:1000B0000E020F0811241FBECFEFD8E0DEBFCDBF68
:1000C00011E0A0E0B1E0E0EDF9E102C005900D9291
:1000D000A233B107D9F722E0A2E3B1E001C01D923B
:1000E000AC3EB207E1F710E0C4EBD0E004C02297C9
:1000F000FE010E94E20CCE3AD107C9F70E94970395
:100100000C947E0A0C94000060E476E084E391E0B5
:100110000E94C20426E040E052EC61E070E08FE80B
:1001200091E00E94340347E157EB61ED78E3809161
:100130003201909133010C946205CF92DF92EF92DD
:10014000FF9241E061E070E08091320190913301D3
:100150000E949C0580913201909133010E94960586
:100160006B017C012AE030E0AB01BC018FE891E03B
:100170000E946504C601FF90EF90DF90CF900C9431
:10018000670160E684E391E00E947F0441E068EC4F
:1001900070E084E391E00E94100590933301809316
:1001A000320108951F920F920FB60F9211242F93D0
:1001B0003F938F939F93AF93BF93809187019091CB
:1001C0008801A0918901B0918A013091860123E0D4
:1001D000230F2D3720F40196A11DB11D05C026E87F
:1001E000230F0296A11DB11D2093860180938701E4
:1001F00090938801A0938901B0938A0180918B012B
:1002000090918C01A0918D01B0918E010196A11D5C
:10021000B11D80938B0190938C01A0938D01B093BD
:100220008E01BF91AF919F918F913F912F910F9030
:100230000FBE0F901F9018953FB7F89480918B01D7
:1002400090918C01A0918D01B0918E0126B5A89B53
:1002500005C02F3F19F00196A11DB11D3FBF6627B4
:10026000782F892F9A2F620F711D811D911D42E0F9
:10027000660F771F881F991F4A95D1F70895CF926F
:10028000DF92EF92FF92CF93DF936B017C010E948C
:100290001C01EB01C114D104E104F10489F00E94B6
:1002A0001E0A0E941C016C1B7D0B683E734090F37C
:1002B00081E0C81AD108E108F108C851DC4FEACF43
:1002C000DF91CF91FF90EF90DF90CF90089501974D
:1002D00039F0880F991F880F991F02970197F1F73E
:1002E0000895789484B5826084BD84B5816084BDAE
:1002F00085B5826085BD85B5816085BDEEE6F0E09F
:10030000808181608083E1E8F0E0108280818260FA
:100310008083808181608083E0E8F0E0808181607B
:100320008083E1EBF0E0808184608083E0EBF0E0AB
:10033000808181608083EAE7F0E08081846080834F
:1003400080818260808380818160808380818068F9
:1003500080831092C10008951F920F920FB60F92E2
:1003600011242F938F939F93EF93FF93E0919F011D
:10037000F091A0018081E091A501F091A60182FD9C
:1003800012C090818091A8018F5F8F732091A90185
:10039000821751F0E091A801F0E0E157FE4F958FF0
:1003A0008093A80101C08081FF91EF919F918F916F
:1003B0002F910F900FBE0F901F9018951F920F92C4
:1003C0000FB60F9211242F933F934F935F936F9328
:1003D0007F938F939F93AF93BF93EF93FF938FE898
:1003E00091E00E948C02FF91EF91BF91AF919F919C
:1003F0008F917F916F915F914F913F912F910F90CE
:100400000FBE0F901F9018958FE891E00E94510247
:1004100021E0892B09F420E0822F089510929201A7
:100420001092910188EE93E0A0E0B0E080939301F8
:1004300090939401A0939501B093960185E191E08A
:100440009093900180938F0185EC90E090939C01B4
:1004500080939B0184EC90E090939E0180939D019A
:1004600080EC90E09093A00180939F0181EC90E05C
:100470009093A2018093A10182EC90E09093A4015B
:100480008093A30186EC90E09093A6018093A50150
:100490001092A8011092A9011092AA011092AB012A
:1004A0000895FC01818D228D90E0805C9F4F821B1E
:1004B00091098F7399270895FC01918D828D98176A
:1004C00031F0828DE80FF11D858D90E008958FEF5A
:1004D0009FEF0895FC01918D828D981761F0828DB8
:1004E000DF01A80FB11D5D968C91928D9F5F9F7368
:1004F000928F90E008958FEF9FEF089584E092E04F
:10050000892B49F080E090E0892B29F00E940402B9
:1005100081110C9400000895FC01848DDF01A80F67
:10052000B11DA35ABF4F2C91848D90E001968F731B
:100530009927848FA689B7892C93A089B1898C913A
:1005400080648C93938D848D981306C00288F38900
:10055000E02D80818F7D80830895CF93DF93EC0120
:10056000888D8823C9F0EA89FB89808185FD05C0D3
:10057000A889B9898C9186FD0FC00FB607FCF5CF0D
:10058000808185FFF2CFA889B9898C9185FFEDCF55
:10059000CE010E948C02E7CFDF91CF910895CF92D8
:1005A000DF92FF920F931F93CF93DF931F92CDB7EC
:1005B000DEB76C01DC015B969C915B975C968C913D
:1005C0005C97981307C05096ED91FC9151978081EC
:1005D00085FD32C0F601038D10E00F5F1F4F0F73D2
:1005E0001127F02EF601848DF81211C00FB607FC0A
:1005F000F9CFD6015096ED91FC915197808185FFFE
:10060000F1CFC60169830E948C026981EBCF838D93
:10061000E80FF11DE35AFF4F6083D6015B960C9300
:100620005B975296ED91FC91539780818062808315
:1006300081E058968C930DC0D6015696ED91FC91B1
:10064000579760835096ED91FC915197808180641B
:10065000808381E090E00F90DF91CF911F910F9107
:10066000FF90DF90CF900895BF92CF92DF92EF92EC
:10067000FF92CF93DF93EC016A017B01B22EE889F0
:10068000F98982E08083411581EE58076105710583
:10069000A1F060E079E08DE390E0A70196010E946F
:1006A000BE0C21503109410951095695479537959E
:1006B0002795211580E1380798F0E889F98910829B
:1006C00060E874E88EE190E0A70196010E94BE0CFC
:1006D000215031094109510956954795379527957C
:1006E000EC85FD853083EE85FF852083188EEC89AF
:1006F000FD89B082EA89FB89808180618083EA89F3
:10070000FB89808188608083EA89FB898081806899
:100710008083EA89FB8980818F7D8083DF91CF91FF
:10072000FF90EF90DF90CF90BF90089508950E94C2
:1007300071010E9496030E948400CEE7D2E00E94DD
:100740009D002097E1F30E947E02F9CFCF92DF92C5
:10075000EF92FF920F931F93CF93DF936C017A0177
:10076000EB01E60EF71E00E010E0CE15DF0561F0AC
:100770006991D601ED91FC910190F081E02DC601C7
:100780000995080F191FF1CFC801DF91CF911F9173
:100790000F91FF90EF90DF90CF9008956115710554
:1007A00081F0DB010D900020E9F7AD0141505109C6
:1007B000461B570BDC01ED91FC910280F381E02D8B
:1007C000099480E090E00895DC01ED91FC910190A6
:1007D000F081E02D09940F931F93CF93DF93EC01E9
:1007E0006DE00E94E4038C016AE0CE010E94E40304
:1007F000800F911FDF91CF911F910F9108958F92DC
:100800009F92AF92BF92CF92DF92EF92FF920F939F
:100810001F93CF93DF93CDB7DEB7A1970FB6F894B0
:10082000DEBF0FBECDBF7C01C42EE52FCB01D22E83
:1008300019A221E02D1510F02AE0D22E8E010F5DB5
:100840001F4F8D2C912CA12CB12C6C2D7E2FA5012E
:1008500094010E94BE0C8C2DD29E8019112401504F
:1008600011098A3014F4805D01C0895CF80180832D
:10087000211531054105510521F0C22EE32FCA0192
:10088000E4CFB801C7010E94CE03A1960FB6F89439
:10089000DEBF0FBECDBFDF91CF911F910F91FF90B3
:1008A000EF90DF90CF90BF90AF909F908F90089582
:1008B0002115310541F4DC01ED91FC910190F081AD
:1008C000E02D642F09940C94FF030F931F93CF9393
:1008D000DF93EC010E9458048C01CE010E94EB03CF
:1008E000800F911FDF91CF911F910F91089520E00C
:1008F00030E040E050E08F5A9F4F0C945706DF9253
:10090000EF92FF920F931F93CF93DF931F92CDB778
:10091000DEB78C01D62EFC01138A168A128A118A40
:1009200017A212A616A215A213AA12AA11AA15AAF4
:1009300014AA10AA17A6EB5BFF4F11821082319701
:1009400010823396118210823597118210827C01B9
:10095000F1E5EF0EF11C60E4C7010E945406F801B6
:10096000D0826D2DCE0101960E9454068981F70137
:1009700080830F90DF91CF911F910F91FF90EF90A7
:10098000DF900895EF92FF920F931F93CF93DF9321
:100990008C017B018CE292E00E94D507E801CF5ADE
:1009A000DF4FCE010E94C406F801F282E182B70156
:1009B00080E090E00E947A0BAB01BC01CE010E9466
:1009C000F10610E020E030E040E050E0612FCE0181
:1009D0000E9457061F5F1031A9F7DF91CF911F9139
:1009E0000F91FF90EF9008959A018F5A9F4F211514
:1009F00040E1340728F020E030E040E050E102C060
:100A000040E050E00C945706411102C00C9477046A
:100A100020E030E040E050E18F5A9F4F0C945706A1
:100A2000FF920F931F93CF93DF939C01433008F005
:100A300041C04150A42FB0E0FC0183E1489FE00D8C
:100A4000F11D112481A981112BC041AB84E0660FF7
:100A5000771F8A95E1F773AB62AB35AF24AF4423C0
:100A600051F0413079F456E0C5E0D3E014E007E0FE
:100A700082E0F82E07C05CE0CBE0D9E01AE00DE0A0
:100A800098E0F92E83E18A9FF0018B9FF00D1124ED
:100A9000E20FF31FF6AA01AF17ABD0AFC2AF53AF4F
:100AA00043E14A9FC0014B9F900D11248B96820F0A
:100AB000931F02C080E090E0DF91CF911F910F91D2
:100AC000FF9008950F931F93CF93DF9300D000D032
:100AD000CDB7DEB78C019A01AB01FC01678170854F
:100AE00080E090E029833A834B835C830E947A0BF9
:100AF00029813A814B815C810E945B0C9B01AC0196
:100B000060EC71EE84E69CE40E94E60A0E944E0BC3
:100B1000F80160837183828393830F900F900F900D
:100B20000F90DF91CF911F910F910895FC0160818B
:100B300071818281938108951F93CF93DF93EC019C
:100B400029853A858C819D81413031F42F5F3F4F5B
:100B50003A872987019605C0215031093A872987AC
:100B600001979D838C8389859A858F7399279A87AE
:100B700089878031910538F4E0E1F1E0E81BF90B59
:100B80004081FC0119C09C012051310920313105FF
:100B900038F4F901E050FF4F4081E0E2F1E015C088
:100BA0009C01205231092031310548F4E0E3F1E0A5
:100BB000E81BF90B4081F901E050FF4F08C0FC0130
:100BC000E053FF4F4081E0E4F1E0E81BF90B1081B6
:100BD00080E1489FA00111246B8589899A890E9430
:100BE000F40480E1189FA00111246E8589899A89F7
:100BF0000E94F40489859A858031910580F09C01DA
:100C0000205131092031310560F020513109203166
:100C1000310548F0C097409740F010E007C013E05E
:100C200005C016E003C01CE001C019E089899A895B
:100C300010FF05C041E06D850E94040503C06D856D
:100C40000E94770489899A8911FF05C041E06F8568
:100C50000E94040503C06F850E94770489899A89E0
:100C600012FF05C041E06C850E94040503C06C853D
:100C70000E947704187089899A89112329F041E02C
:100C800068890E94040503C068890E9477048985E9
:100C90009A85DF91CF911F910895DC01ED91FC9130
:100CA0000190F081E02D0994FC0160830895FF928A
:100CB0000F931F93CF93DF9300D0CDB7DEB7162FDE
:100CC000F52E032FFC0160818CE292E02A83498398
:100CD0000E94EF07E0912C02F0912D0284E0189F12
:100CE000B00111246A5F7F4F0190F081E02D8CE20A
:100CF00092E009954981642F7F2D8CE292E00E9459
:100D00004D066F2D70E08CE292E00E944D062A8124
:100D1000622F702F8CE292E00E944D06602F70E0EF
:100D20008CE292E00E944D068CE292E00F900F90D0
:100D3000DF91CF911F910F91FF900C940C081F939E
:100D4000CF93DF931F92CDB7DEB7162FFC016081E2
:100D50008CE292E049830E94EF07612F8CE292E0DF
:100D60000E9496074981642F8CE292E00E949607C8
:100D70008CE292E00F90DF91CF911F910C940C08C0
:100D800040E060E00C949F06CF93DF93EC018CE28F
:100D900092E00E94D507CE01DF91CF910C94C0065E
:100DA0001F93CF93DF93EC01162F68818CE292E0C2
:100DB0000E94EF07612F8CE292E00E9496078CE27E
:100DC00092E00E940C0841E068818CE292E00E946F
:100DD000EC078CE292E00E944607DF91CF911F91D1
:100DE0000895CF92DF92EF92FF921F93CF93DF93FC
:100DF000EC019A01AB0160E27CEB8EEB95E40E9482
:100E0000E60A20E030E040E85FE30E94810A20E04B
:100E100030E040E05FE30E94820A0E94B70B6B0162
:100E20007C0160E0CE010E94D006182F482F4F763B
:100E3000406160E0CE010E949F06C701B6010E949A
:100E40004E0B462F6EEFCE010E949F06412F60E0B1
:100E5000CE010E949F0665E070E080E090E00E9475
:100E60003F01412F416A60E0CE01DF91CF911F9198
:100E7000FF90EF90DF90CF900C949F0680915C02E2
:100E800090E020915D02821B9109089520915D02FE
:100E900080915C02281750F4E22FF0E0E25AFD4FF7
:100EA000808190E02F5F20935D0208958FEF9FEF88
:100EB0000895E0915D0280915C02E81730F4F0E063
:100EC000E25AFD4F808190E008958FEF9FEF0895E3
:100ED0000895CF92DF92EF92FF920F931F93CF93DB
:100EE000DF937C01CB018A0120913802222389F013
:100EF000EB016B01C40ED51ECC15DD0569F06991BF
:100F0000D701ED91FC910190F081E02DC701099589
:100F1000F3CF642F0E94C808C801DF91CF911F91C1
:100F20000F91FF90EF90DF90CF900895CF93DF93D4
:100F30001F92CDB7DEB76983209138022223D1F00A
:100F400020913902203240F021E030E0FC0133836F
:100F5000228380E090E015C080913A02E82FF0E013
:100F6000E55CFD4F998190838F5F80933A02809377
:100F7000390205C061E0CE0101960E94C80881E0F7
:100F800090E00F90DF91CF910895FC0113821282BF
:100F900048EE53E060E070E04483558366837783D6
:100FA00085E291E091838083089510925D02109212
:100FB0005C0210923A02109239020C941308862FA8
:100FC000413208F040E26EE572E00E943108109272
:100FD0005D0280935C02089521E00C94DF0781E0BC
:100FE0008093380260935B0210923A0210923902A9
:100FF00008950F93062F21E0409139026BE372E0D0
:1010000080915B020E94750810923A021092390298
:10101000109238020F91089561E00C94F9078CE268
:1010200092E00C94C5071092EB0281E08093E902F4
:101030001092E80261E082E10E94480A61E083E1E7
:101040000E94480AE9EBF0E080818E7F80838081F6
:101050008D7F808388E48093B80085E48093BC0012
:101060000895413208F03FC09091EB029111FCCFFE
:1010700091E09093EB022093E9022FEF20937E0200
:101080001092C302240F2093C2029093EA0290911F
:10109000EA02880F892B8093EA028091E80281306E
:1010A00041F41092E8028091EA028093BB0085EC43
:1010B00001C085EE8093BC008091EB028130E1F3AA
:1010C0008091C302841710F44091C30224EC32E0F3
:1010D000FB01D9018A2F821B841718F48D9181930B
:1010E000F9CF842F089580E008950F93413208F0DE
:1010F00046C09091EB029111FCCF92E09093EB02ED
:101100000093E9029FEF90937E021092C3024093F6
:10111000C202FB0164EC72E0DB019A2F961B94176C
:1011200018F491919D93F9CF1092EA029091EA02FE
:10113000880F892B8093EA028091E802813041F484
:101140001092E8028091EA028093BB0085EC01C016
:1011500085EE8093BC00222321F08091EB02823047
:10116000E1F380917E028F3F61F080917E028032B8
:1011700051F080917E02803341F483E007C081E02A
:1011800005C080E003C082E001C084E00F910895B3
:10119000613298F42091EB02243089F46093A0022C
:1011A000FC0182EA92E0DC012A2F281B261718F4A2
:1011B00021912D93F9CF80E0089581E0089582E098
:1011C000089585ED8093BC008091BC0084FDFCCF28
:1011D0001092EB02089585EC8093BC001092EB0214
:1011E00008951F920F920FB60F9211242F933F93E1
:1011F0004F935F936F937F938F939F93AF93BF931F
:10120000EF93FF938091B900887F803609F49CC0EA
:1012100068F5883209F45BC090F4803109F454C059
:1012200038F4882309F4F5C0883009F44DC0F5C0BE
:10123000883109F44CC0803209F45DC0EEC08034BE
:1012400009F468C048F4803309F455C0883309F0C4
:10125000E4C080937E02A8C0803509F44FC0883571
:1012600009F45DC0883409F0D8C0D5C0883909F4C4
:10127000C6C0A8F4883709F467C038F4883609F482
:1012800063C0803709F460C0C8C0883809F4B7C0AB
:10129000803909F45FC0803809F0BFC05BC0803B73
:1012A00009F485C038F4803A09F466C0883A09F434
:1012B0007EC0B3C0803C09F4A6C0883C09F4A3C03A
:1012C000883B09F489C0A9C08091EA0210C09091BE
:1012D000C3028091C202981770F5E091C30281E0C9
:1012E0008E0F8093C302F0E0EC53FD4F808180931A
:1012F000BB0085EC85C080937E028DC0E091C30267
:1013000081E08E0F8093C3028091BB00F0E0EC532C
:10131000FD4F80839091C3028091C2026DC0E09125
:10132000C30281E08E0F8093C3028091BB00F0E086
:10133000EC53FD4F80838091E90281116CC081E004
:101340008093E80284EA60C083E08093EB0210920D
:101350007F02CFCF80917F02803208F050C0E091B1
:101360007F0281E08E0F80937F028091BB00F0E0CE
:10137000E058FD4F8083BDCF80917F02803230F4F2
:10138000E0917F02F0E0E058FD4F10820E94E108FA
:1013900060917F0270E0E091E402F091E50280E864
:1013A00092E0099510927F020E94EB0836C084E01B
:1013B0008093EB021092A1021092A002E091E6024B
:1013C000F091E70209958091A002811105C081E0AA
:1013D0008093A0021092A202E091A10281E08E0F00
:1013E0008093A102F0E0EE55FD4F80818093BB0019
:1013F0009091A1028091A002981708F47ACF85E815
:101400008093BC000AC085EC8093BC001092EB0274
:1014100004C010927E020E94E108FF91EF91BF91FB
:10142000AF919F918F917F916F915F914F913F917C
:101430002F910F900FBE0F901F9018950895833035
:1014400081F028F4813099F08230A1F0089587303E
:10145000A9F08830B9F08430D1F4809180008F7D7C
:1014600003C0809180008F7780938000089584B5B9
:101470008F7702C084B58F7D84BD08958091B000C0
:101480008F7703C08091B0008F7D8093B000089566
:101490000F931F93CF93DF931F92CDB7DEB7282F03
:1014A00030E0F901E859FF4F8491F901E458FF4F0A
:1014B0001491F901E057FF4F04910023C9F08823EC
:1014C00021F069830E941F0A6981E02FF0E0EE0F8E
:1014D000FF1FEC55FF4FA591B4919FB7F8948C91E5
:1014E000611103C01095812301C0812B8C939FBF94
:1014F0000F90DF91CF911F910F910895F8940C9464
:10150000E60C5058BB27AA270ED084C175D130F005
:101510007AD120F031F49F3F11F41EF46AC10EF429
:10152000E095E7FB37C1E92F86D180F3BA17620750
:1015300073078407950718F071F49EF5B5C10EF492
:10154000E0950B2EBA2FA02D0B01B90190010C01D3
:10155000CA01A0011124FF27591B99F0593F50F4EB
:10156000503E68F11A16F040A22F232F342F442743
:10157000585FF3CF469537952795A795F04053953B
:10158000C9F77EF41F16BA0B620B730B840BBAF00B
:101590009150A1F0FF0FBB1F661F771F881FC2F776
:1015A0000EC0BA0F621F731F841F48F4879577958A
:1015B0006795B795F7959E3F08F0B3CF9395880F41
:1015C00008F09927EE0F9795879508950CD022C1C2
:1015D0001AD140F011D130F021F45F3F19F0DAC098
:1015E000511163C106C127D198F39923C9F355233B
:1015F000B1F3951B550BBB27AA2762177307840706
:1016000038F09F5F5F4F220F331F441FAA1FA9F3BB
:1016100033D00E2E3AF0E0E830D091505040E695AD
:10162000001CCAF729D0FE2F27D0660F771F881F0E
:10163000BB1F261737074807AB07B0E809F0BB0BFD
:10164000802DBF01FF2793585F4F2AF09E3F510521
:1016500068F0A0C02AC15F3FECF3983EDCF38695AA
:1016600077956795B795F7959F5FC9F7880F911D97
:101670009695879597F90895E1E0660F771F881F83
:10168000BB1F621773078407BA0720F0621B730B36
:10169000840BBA0BEE1F88F7E0950895D4D088F03C
:1016A0009F5790F0B92F9927B751A0F0D1F0660F4E
:1016B000771F881F991F1AF0BA95C9F712C0B13069
:1016C00081F0F2D0B1E00895EFC0672F782F88271E
:1016D000B85F39F0B93FCCF3869577956795B395A8
:1016E000D9F73EF490958095709561957F4F8F4F17
:1016F0009F4F0895E89409C097FB3EF4909580951C
:10170000709561957F4F8F4F9F4F9923A9F0F92FC7
:1017100096E9BB279395F695879577956795B79545
:10172000F111F8CFFAF4BB0F11F460FF1BC06F5F2B
:101730007F4F8F4F9F4F16C0882311F096E911C03D
:10174000772321F09EE8872F762F05C0662371F05E
:1017500096E8862F70E060E02AF09A95660F771F72
:10176000881FDAF7880F9695879597F9089585D0A1
:1017700080F09F3740F491110EF097C060E070E068
:1017800080E89FEB089526F41B16611D711D811DD5
:1017900007C021C097F99F6780E870E060E0089576
:1017A000882371F4772321F09850872B762F07C078
:1017B000662311F499270DC09051862B70E060E0EC
:1017C0002AF09A95660F771F881FDAF7880F96958B
:1017D000879597F908959F3F31F0915020F48795B0
:1017E00077956795B795880F911D9695879597F989
:1017F00008959FEF80EC089500240A9416161706AA
:1018000018060906089500240A94121613061406F1
:1018100005060895092E0394000C11F4882352F054
:10182000BB0F40F4BF2B11F460FF04C06F5F7F4F0C
:101830008F4F9F4F089557FD9058440F551F59F0F3
:101840005F3F71F04795880F97FB991F61F09F3FAD
:1018500079F087950895121613061406551FF2CFD6
:101860004695F1DF08C0161617061806991FF1CF26
:1018700086957105610508940895E5DFA0F0BEE73F
:10188000B91788F4BB279F3860F41616B11D672F6F
:10189000782F8827985FF7CF869577956795B11D44
:1018A00093959639C8F30895E894BB276627772760
:1018B000CB0197F908950BD0ADCF9EDF28F0A3DFC1
:1018C00018F0952309F066CF94CF1124EECFB3DF43
:1018D000A0F3959FD1F3950F50E0551F629FF00143
:1018E000729FBB27F00DB11D639FAA27F00DB11D9C
:1018F000AA1F649F6627B00DA11D661F829F222725
:10190000B00DA11D621F739FB00DA11D621F839FAB
:10191000A00D611D221F749F3327A00D611D231F81
:10192000849F600D211D822F762F6A2F11249F57CF
:1019300050408AF0E1F088234AF0EE0FFF1FBB1FF2
:10194000661F771F881F91505040A9F79E3F510591
:1019500070F020CFAACF5F3FECF3983EDCF3869582
:1019600077956795B795F795E7959F5FC1F7FE2B3C
:10197000880F911D9695879597F90895A1E21A2EE3
:10198000AA1BBB1BFD010DC0AA1FBB1FEE1FFF1F23
:10199000A217B307E407F50720F0A21BB30BE40B73
:1019A000F50B661F771F881F991F1A9469F76095BA
:1019B0007095809590959B01AC01BD01CF01089574
:1019C000EE0FFF1F0590F491E02D0994F894FFCFDE
:1019D0000019324A62788DA2B4C5D4E1ECF4FAFD64
:1019E000FF00000000CF02A60351026A025C02ADB4
:1019F0000200000000960769073E0746075907687E
:021A00000700DD
:00000001FF
